{
    "abi": [
        {
            "type": "function",
            "name": "OWNER_KEY",
            "inputs": [],
            "outputs": [
                {
                    "name": "",
                    "type": "bytes32",
                    "internalType": "bytes32"
                }
            ],
            "stateMutability": "view"
        },
        {
            "type": "function",
            "name": "decodeSignature",
            "inputs": [
                {
                    "name": "userOpSignature",
                    "type": "bytes",
                    "internalType": "bytes"
                }
            ],
            "outputs": [
                {
                    "name": "validator",
                    "type": "address",
                    "internalType": "address"
                },
                {
                    "name": "signature",
                    "type": "bytes",
                    "internalType": "bytes"
                }
            ],
            "stateMutability": "pure"
        },
        {
            "type": "function",
            "name": "getEthSignedMessageHash",
            "inputs": [
                {
                    "name": "hash",
                    "type": "bytes32",
                    "internalType": "bytes32"
                }
            ],
            "outputs": [
                {
                    "name": "",
                    "type": "bytes32",
                    "internalType": "bytes32"
                }
            ],
            "stateMutability": "view"
        },
        {
            "type": "function",
            "name": "getOwner",
            "inputs": [
                {
                    "name": "account",
                    "type": "address",
                    "internalType": "address"
                }
            ],
            "outputs": [
                {
                    "name": "",
                    "type": "address",
                    "internalType": "address"
                }
            ],
            "stateMutability": "view"
        },
        {
            "type": "function",
            "name": "init",
            "inputs": [
                {
                    "name": "owner",
                    "type": "address",
                    "internalType": "address"
                }
            ],
            "outputs": [
                {
                    "name": "",
                    "type": "bytes4",
                    "internalType": "bytes4"
                }
            ],
            "stateMutability": "nonpayable"
        },
        {
            "type": "function",
            "name": "isValidAccountSignature",
            "inputs": [
                {
                    "name": "hash",
                    "type": "bytes32",
                    "internalType": "bytes32"
                },
                {
                    "name": "signature",
                    "type": "bytes",
                    "internalType": "bytes"
                }
            ],
            "outputs": [
                {
                    "name": "",
                    "type": "bool",
                    "internalType": "bool"
                }
            ],
            "stateMutability": "view"
        },
        {
            "type": "function",
            "name": "setOwner",
            "inputs": [
                {
                    "name": "owner",
                    "type": "address",
                    "internalType": "address"
                }
            ],
            "outputs": [],
            "stateMutability": "nonpayable"
        },
        {
            "type": "function",
            "name": "validateUserOp",
            "inputs": [
                {
                    "name": "userOp",
                    "type": "tuple",
                    "internalType": "struct UserOperation",
                    "components": [
                        {
                            "name": "sender",
                            "type": "address",
                            "internalType": "address"
                        },
                        {
                            "name": "nonce",
                            "type": "uint256",
                            "internalType": "uint256"
                        },
                        {
                            "name": "initCode",
                            "type": "bytes",
                            "internalType": "bytes"
                        },
                        {
                            "name": "callData",
                            "type": "bytes",
                            "internalType": "bytes"
                        },
                        {
                            "name": "callGasLimit",
                            "type": "uint256",
                            "internalType": "uint256"
                        },
                        {
                            "name": "verificationGasLimit",
                            "type": "uint256",
                            "internalType": "uint256"
                        },
                        {
                            "name": "preVerificationGas",
                            "type": "uint256",
                            "internalType": "uint256"
                        },
                        {
                            "name": "maxFeePerGas",
                            "type": "uint256",
                            "internalType": "uint256"
                        },
                        {
                            "name": "maxPriorityFeePerGas",
                            "type": "uint256",
                            "internalType": "uint256"
                        },
                        {
                            "name": "paymasterAndData",
                            "type": "bytes",
                            "internalType": "bytes"
                        },
                        {
                            "name": "signature",
                            "type": "bytes",
                            "internalType": "bytes"
                        }
                    ]
                },
                {
                    "name": "userOpHash",
                    "type": "bytes32",
                    "internalType": "bytes32"
                },
                {
                    "name": "",
                    "type": "uint8",
                    "internalType": "enum OpTarget"
                }
            ],
            "outputs": [
                {
                    "name": "validationData",
                    "type": "uint256",
                    "internalType": "uint256"
                }
            ],
            "stateMutability": "view"
        },
        {
            "type": "event",
            "name": "AccountOwnerChanged",
            "inputs": [
                {
                    "name": "account",
                    "type": "address",
                    "indexed": true,
                    "internalType": "address"
                },
                {
                    "name": "prevOwner",
                    "type": "address",
                    "indexed": true,
                    "internalType": "address"
                },
                {
                    "name": "curOwner",
                    "type": "address",
                    "indexed": true,
                    "internalType": "address"
                }
            ],
            "anonymous": false
        }
    ],
    "bytecode": {
        "object": "0x608060405234801561001057600080fd5b506111a5806100206000396000f3fe608060405234801561001057600080fd5b50600436106100885760003560e01c80638247ef081161005b5780638247ef0814610117578063fa5408011461013e578063fa54416114610151578063fb9b38be1461017c57600080fd5b806313af40351461008d57806319ab453c146100a25780636a62be86146100d35780637ad527b1146100f4575b600080fd5b6100a061009b366004610d0c565b61019d565b005b6100b56100b0366004610d0c565b61020c565b6040516001600160e01b031990911681526020015b60405180910390f35b6100e66100e1366004610d29565b610283565b6040519081526020016100ca565b610107610102366004610dd0565b6102bf565b60405190151581526020016100ca565b6100e67f02016836a56b71f0d02689e69e326f4f4c1b9057164ef592671cf0d37c8040c081565b6100e661014c366004610e1c565b6102cd565b61016461015f366004610d0c565b610346565b6040516001600160a01b0390911681526020016100ca565b61018f61018a366004610e35565b6103bb565b6040516100ca929190610ec7565b60006101a933836103d6565b9050806102085760405162461bcd60e51b815260206004820152602260248201527f56616c69646174696f6e204661696c65643a206e6f7420696e697469616c697a604482015261195960f21b60648201526084015b60405180910390fd5b5050565b60008061021933846103d6565b905080156102745760405162461bcd60e51b815260206004820152602260248201527f56616c69646174696f6e204661696c65643a2072652d696e697469616c697a696044820152616e6760f01b60648201526084016101ff565b50632f668f9960e01b92915050565b60006102a96102956020860186610d0c565b846102a4610140880188610eeb565b6104b9565b6102b45760016102b7565b60005b949350505050565b60006102b7338585856104b9565b600061034082306040516020016102f79291909182526001600160a01b0316602082015260400190565b604051602081830303815290604052805190602001207f19457468657265756d205369676e6564204d6573736167653a0a3332000000006000908152601c91909152603c902090565b92915050565b600080600061035484610561565b91509150806103b45760405162461bcd60e51b815260206004820152602660248201527f56616c696461746f722052656164204661696c65643a206e6f7420696e697469604482015265185b1a5e995960d21b60648201526084016101ff565b5092915050565b600060606103cb83850185610fa1565b909590945092505050565b60006001600160a01b03821661042e5760405162461bcd60e51b815260206004820152601b60248201527f496e76616c696420496e7075743a207a65726f2061646472657373000000000060448201526064016101ff565b600061043984610561565b92509050610468847f02016836a56b71f0d02689e69e326f4f4c1b9057164ef592671cf0d37c8040c085610592565b826001600160a01b0316816001600160a01b0316856001600160a01b03167f7bd0c91c4674d9e360ee5696b317ec04ac11f4e13e439dfcc9c33849fbe983a860405160405180910390a45092915050565b60008060006104c885856103bb565b90925090506001600160a01b03821630146105305760405162461bcd60e51b815260206004820152602260248201527f56616c69646174696f6e204661696c65643a2077726f6e672076616c6964617460448201526137b960f11b60648201526084016101ff565b600061053b876102cd565b9050610555818361054b8b6105d2565b60009291906105fe565b98975050505050505050565b600080600061056f846105d2565b8051158015935090915061058c576105868161104a565b60601c92505b50915091565b6040516bffffffffffffffffffffffff19606083901b1660208201526105cd90849084906034016040516020818303038152906040526107ba565b505050565b6060610340827f02016836a56b71f0d02689e69e326f4f4c1b9057164ef592671cf0d37c8040c061081f565b60008085600181111561061357610613611034565b036106a55760148251146106695760405162461bcd60e51b815260206004820181905260248201527f496e76616c6964205369676e61747572653a207369676e6572206c656e67746860448201526064016101ff565b60006106748361104a565b60601c90506000610685868661089c565b9050806001600160a01b0316826001600160a01b031614925050506102b7565b60018560018111156106b9576106b9611034565b036102b757604082511461070f5760405162461bcd60e51b815260206004820181905260248201527f496e76616c6964205369676e61747572653a207369676e6572206c656e67746860448201526064016101ff565b600080838060200190518101906107269190611086565b9150915084516040146107875760405162461bcd60e51b815260206004820152602360248201527f496e76616c6964205369676e61747572653a207369676e6174757265206c656e6044820152620cee8d60eb1b60648201526084016101ff565b6000808680602001905181019061079e9190611086565b915091506107af88838387876108c0565b9450505050506102b7565b604051639358adf560e01b81526001600160a01b03841690639358adf5906107e890859085906004016110aa565b600060405180830381600087803b15801561080257600080fd5b505af1158015610816573d6000803e3d6000fd5b50505050505050565b604051634e7b691b60e11b8152306004820152602481018290526060906001600160a01b03841690639cf6d23690604401600060405180830381865afa15801561086d573d6000803e3d6000fd5b505050506040513d6000823e601f3d908101601f1916820160405261089591908101906110c3565b9392505050565b60008060006108ab8585610949565b915091506108b88161098e565b509392505050565b60007f7fffffff800000007fffffffffffffffde737d56d38bcf4279dce5617e3192a88411156109325760405162461bcd60e51b815260206004820152601c60248201527f496e76616c6964205369676e61747572653a206e6f74206c6f7720730000000060448201526064016101ff565b61093f8686868686610adb565b9695505050505050565b600080825160410361097f5760208301516040840151606085015160001a61097387828585610c33565b94509450505050610987565b506000905060025b9250929050565b60008160048111156109a2576109a2611034565b036109aa5750565b60018160048111156109be576109be611034565b03610a0b5760405162461bcd60e51b815260206004820152601860248201527f45434453413a20696e76616c6964207369676e6174757265000000000000000060448201526064016101ff565b6002816004811115610a1f57610a1f611034565b03610a6c5760405162461bcd60e51b815260206004820152601f60248201527f45434453413a20696e76616c6964207369676e6174757265206c656e6774680060448201526064016101ff565b6003816004811115610a8057610a80611034565b03610ad85760405162461bcd60e51b815260206004820152602260248201527f45434453413a20696e76616c6964207369676e6174757265202773272076616c604482015261756560f01b60648201526084016101ff565b50565b600073c2b78104907f722dabac4c69f826a522b2754de43b610b555760405162461bcd60e51b815260206004820152602d60248201527f56616c69646174696f6e204661696c65643a205032353620766572696669657260448201526c081b9bdd0819195c1b1bde5959609a1b60648201526084016101ff565b6040805160208101889052908101869052606081018590526080810184905260a0810183905260009060c001604051602081830303815290604052905060008073c2b78104907f722dabac4c69f826a522b2754de46001600160a01b031683604051610bc1919061113a565b600060405180830381855afa9150503d8060008114610bfc576040519150601f19603f3d011682016040523d82523d6000602084013e610c01565b606091505b5091509150818015610c26575080806020019051810190610c229190611156565b6001145b9998505050505050505050565b6000807f7fffffffffffffffffffffffffffffff5d576e7357a4501ddfe92f46681b20a0831115610c6a5750600090506003610cee565b6040805160008082526020820180845289905260ff881692820192909252606081018690526080810185905260019060a0016020604051602081039080840390855afa158015610cbe573d6000803e3d6000fd5b5050604051601f1901519150506001600160a01b038116610ce757600060019250925050610cee565b9150600090505b94509492505050565b6001600160a01b0381168114610ad857600080fd5b600060208284031215610d1e57600080fd5b813561089581610cf7565b600080600060608486031215610d3e57600080fd5b833567ffffffffffffffff811115610d5557600080fd5b84016101608187031215610d6857600080fd5b925060208401359150604084013560038110610d8357600080fd5b809150509250925092565b60008083601f840112610da057600080fd5b50813567ffffffffffffffff811115610db857600080fd5b60208301915083602082850101111561098757600080fd5b600080600060408486031215610de557600080fd5b83359250602084013567ffffffffffffffff811115610e0357600080fd5b610e0f86828701610d8e565b9497909650939450505050565b600060208284031215610e2e57600080fd5b5035919050565b60008060208385031215610e4857600080fd5b823567ffffffffffffffff811115610e5f57600080fd5b610e6b85828601610d8e565b90969095509350505050565b60005b83811015610e92578181015183820152602001610e7a565b50506000910152565b60008151808452610eb3816020860160208601610e77565b601f01601f19169290920160200192915050565b6001600160a01b03831681526040602082018190526000906102b790830184610e9b565b6000808335601e19843603018112610f0257600080fd5b83018035915067ffffffffffffffff821115610f1d57600080fd5b60200191503681900382131561098757600080fd5b634e487b7160e01b600052604160045260246000fd5b604051601f8201601f1916810167ffffffffffffffff81118282101715610f7157610f71610f32565b604052919050565b600067ffffffffffffffff821115610f9357610f93610f32565b50601f01601f191660200190565b60008060408385031215610fb457600080fd5b8235610fbf81610cf7565b9150602083013567ffffffffffffffff811115610fdb57600080fd5b8301601f81018513610fec57600080fd5b8035610fff610ffa82610f79565b610f48565b81815286602083850101111561101457600080fd5b816020840160208301376000602083830101528093505050509250929050565b634e487b7160e01b600052602160045260246000fd5b805160208201516bffffffffffffffffffffffff19808216929190601483101561107e5780818460140360031b1b83161693505b505050919050565b6000806040838503121561109957600080fd5b505080516020909101519092909150565b8281526040602082015260006102b76040830184610e9b565b6000602082840312156110d557600080fd5b815167ffffffffffffffff8111156110ec57600080fd5b8201601f810184136110fd57600080fd5b805161110b610ffa82610f79565b81815285602083850101111561112057600080fd5b611131826020830160208601610e77565b95945050505050565b6000825161114c818460208701610e77565b9190910192915050565b60006020828403121561116857600080fd5b505191905056fea2646970667358221220e1f782aaaa3d3e0531e0eb5f802118b44eb203203fb7d7ebb7887fdce0bdf31e64736f6c63430008110033",
        "linkReferences": {}
    },
    "methodIdentifiers": {
        "OWNER_KEY()": "8247ef08",
        "decodeSignature(bytes)": "fb9b38be",
        "getEthSignedMessageHash(bytes32)": "fa540801",
        "getOwner(address)": "fa544161",
        "init(address)": "19ab453c",
        "isValidAccountSignature(bytes32,bytes)": "7ad527b1",
        "setOwner(address)": "13af4035",
        "validateUserOp((address,uint256,bytes,bytes,uint256,uint256,uint256,uint256,uint256,bytes,bytes),bytes32,uint8)": "6a62be86"
    },
    "id": 121
}