{
  "abi": [
    {
      "type": "constructor",
      "inputs": [
        {
          "name": "owner",
          "type": "address",
          "internalType": "address"
        }
      ],
      "stateMutability": "nonpayable"
    },
    {
      "type": "function",
      "name": "createAccount",
      "inputs": [
        {
          "name": "initializer",
          "type": "bytes",
          "internalType": "bytes"
        },
        {
          "name": "salt",
          "type": "uint256",
          "internalType": "uint256"
        }
      ],
      "outputs": [
        {
          "name": "proxy",
          "type": "address",
          "internalType": "address"
        }
      ],
      "stateMutability": "nonpayable"
    },
    {
      "type": "function",
      "name": "createAccountWithSignature",
      "inputs": [
        {
          "name": "createAccountRequest",
          "type": "tuple",
          "internalType": "struct CreateAccount",
          "components": [
            {
              "name": "initializer",
              "type": "bytes",
              "internalType": "bytes"
            },
            {
              "name": "salt",
              "type": "uint256",
              "internalType": "uint256"
            }
          ]
        },
        {
          "name": "signature",
          "type": "bytes",
          "internalType": "bytes"
        }
      ],
      "outputs": [
        {
          "name": "proxy",
          "type": "address",
          "internalType": "address"
        }
      ],
      "stateMutability": "nonpayable"
    },
    {
      "type": "function",
      "name": "getAddress",
      "inputs": [
        {
          "name": "salt",
          "type": "uint256",
          "internalType": "uint256"
        }
      ],
      "outputs": [
        {
          "name": "",
          "type": "address",
          "internalType": "address"
        }
      ],
      "stateMutability": "view"
    },
    {
      "type": "function",
      "name": "getImpl",
      "inputs": [],
      "outputs": [
        {
          "name": "",
          "type": "address",
          "internalType": "address"
        }
      ],
      "stateMutability": "view"
    },
    {
      "type": "function",
      "name": "getOwner",
      "inputs": [],
      "outputs": [
        {
          "name": "",
          "type": "address",
          "internalType": "address"
        }
      ],
      "stateMutability": "view"
    },
    {
      "type": "function",
      "name": "setImpl",
      "inputs": [
        {
          "name": "implAddr",
          "type": "address",
          "internalType": "address"
        }
      ],
      "outputs": [],
      "stateMutability": "nonpayable"
    },
    {
      "type": "function",
      "name": "setOwner",
      "inputs": [
        {
          "name": "newOwner",
          "type": "address",
          "internalType": "address"
        }
      ],
      "outputs": [],
      "stateMutability": "nonpayable"
    },
    {
      "type": "event",
      "name": "Deployed",
      "inputs": [
        {
          "name": "addr",
          "type": "address",
          "indexed": true,
          "internalType": "address"
        },
        {
          "name": "salt",
          "type": "uint256",
          "indexed": true,
          "internalType": "uint256"
        }
      ],
      "anonymous": false
    },
    {
      "type": "event",
      "name": "ImplementationUpdated",
      "inputs": [
        {
          "name": "oldImpl",
          "type": "address",
          "indexed": false,
          "internalType": "address"
        },
        {
          "name": "newImpl",
          "type": "address",
          "indexed": false,
          "internalType": "address"
        }
      ],
      "anonymous": false
    },
    {
      "type": "event",
      "name": "OwnershipTransferred",
      "inputs": [
        {
          "name": "previousOwner",
          "type": "address",
          "indexed": true,
          "internalType": "address"
        },
        {
          "name": "newOwner",
          "type": "address",
          "indexed": true,
          "internalType": "address"
        }
      ],
      "anonymous": false
    }
  ],
  "bytecode": {
    "object": "0x608060405234801561001057600080fd5b5060405161197e38038061197e83398101604081905261002f91610054565b600080546001600160a01b0319166001600160a01b0392909216919091179055610084565b60006020828403121561006657600080fd5b81516001600160a01b038116811461007d57600080fd5b9392505050565b6118eb806100936000396000f3fe60806040523480156200001157600080fd5b5060043610620000875760003560e01c8063691bd2ae1162000062578063691bd2ae14620000ef578063893d20e81462000106578063b93f9b0a1462000118578063dfb80831146200012f57600080fd5b80630fd8377b146200008c57806313af403514620000bf5780631b43d8d914620000d8575b600080fd5b620000a36200009d36600462000e55565b62000141565b6040516001600160a01b03909116815260200160405180910390f35b620000d6620000d036600462000e9e565b6200018d565b005b620000a3620000e936600462000ed0565b62000215565b620000d66200010036600462000e9e565b62000256565b6000546001600160a01b0316620000a3565b620000a36200012936600462000f8c565b620002ec565b6001546001600160a01b0316620000a3565b600080546001600160a01b03163314620001785760405162461bcd60e51b81526004016200016f9062000fa6565b60405180910390fd5b6200018483836200038d565b90505b92915050565b6000546001600160a01b03163314620001ba5760405162461bcd60e51b81526004016200016f9062000fa6565b600080546040516001600160a01b03808516939216917f8be0079c531659141344cd1fd0a4f28419497f9722a3daafe3b4186f6b6457e091a3600080546001600160a01b0319166001600160a01b0392909216919091179055565b600062000223838362000572565b620002425760405162461bcd60e51b81526004016200016f9062000fa6565b62000184836000015184602001516200038d565b6000546001600160a01b03163314620002835760405162461bcd60e51b81526004016200016f9062000fa6565b600154604080516001600160a01b03928316815291831660208301527faa3f731066a578e5f39b4215468d826cdd15373cbc0dfc9cb9bdc649718ef7da910160405180910390a1600180546001600160a01b0319166001600160a01b0392909216919091179055565b60008060405180602001620003019062000d9c565b601f1982820381018352601f90910116604081905262000325919060200162001003565b60408051808303601f1901815282825280516020918201206001600160f81b0319828501523060601b6001600160601b031916602185015260358401969096526055808401969096528151808403909601865260759092019052835193019290922092915050565b6001546000906001600160a01b03163b620003f75760405162461bcd60e51b8152602060048201526024808201527f436f6e666967204e6f74205365743a2070726f787920696d706c656d656e74616044820152633a34b7b760e11b60648201526084016200016f565b6200040282620002ec565b90506001600160a01b0381163b80156200041d575062000187565b600060405180602001620004319062000d9c565b601f1982820381018352601f90910116604081905262000455919060200162001003565b6040516020818303038152906040529050838151826020016000f592506000836001600160a01b0316866040516200048e919062001003565b6000604051808303816000865af19150503d8060008114620004cd576040519150601f19603f3d011682016040523d82523d6000602084013e620004d2565b606091505b5050905080620005335760405162461bcd60e51b815260206004820152602560248201527f437265617465204163636f756e74204661696c65643a20696e697469616c697a60448201526430ba34b7b760d91b60648201526084016200016f565b60405185906001600160a01b038616907fb03c53b28e78a88e31607a27e1fa48234dce28d5d9d9ec7b295aeb02e674a1e190600090a350505092915050565b600080620005814630620005d9565b6000805460405160609190911b6001600160601b0319166020820152919250906034016040516020818303038152906040529050620005d0620005c58684620006c3565b60009086846200073b565b95945050505050565b600060405180608001604052806052815260200162001837605291398051602091820120604080518082018252601081526f696d4163636f756e74466163746f727960801b90840152805180820182526002815261076360f41b908401528051928301919091527f769cb7f89a1fe23b3b08608c8aa10de3523faede8820dcaf8af445d1807338c4908201527f042d2d898454f584e9cded7d5fa57170aaeed0dd61e9c290d9b4f6e6933da1576060820152608081018490526001600160a01b03831660a082015260c0015b60405160208183030381529060405280519060200120905092915050565b6000816040518060600160405280602d815260200162001889602d91398051602091820120855186830151604051620006fd940162001037565b60405160208183030381529060405280519060200120604051602001620006a592919061190160f01b81526002810192909252602282015260420190565b60008085600181111562000753576200075362001021565b03620007ed576014825114620007ac5760405162461bcd60e51b815260206004820181905260248201527f496e76616c6964205369676e61747572653a207369676e6572206c656e67746860448201526064016200016f565b6000620007b9836200107b565b60601c90506000620007cc868662000914565b9050806001600160a01b0316826001600160a01b031614925050506200090c565b600185600181111562000804576200080462001021565b036200090c5760408251146200085d5760405162461bcd60e51b815260206004820181905260248201527f496e76616c6964205369676e61747572653a207369676e6572206c656e67746860448201526064016200016f565b60008083806020019051810190620008769190620010b3565b915091508451604014620008d95760405162461bcd60e51b815260206004820152602360248201527f496e76616c6964205369676e61747572653a207369676e6174757265206c656e6044820152620cee8d60eb1b60648201526084016200016f565b60008086806020019051810190620008f29190620010b3565b915091506200090588838387876200093c565b9450505050505b949350505050565b6000806000620009258585620009c9565b91509150620009348162000a12565b509392505050565b60007f7fffffff800000007fffffffffffffffde737d56d38bcf4279dce5617e3192a8841115620009b05760405162461bcd60e51b815260206004820152601c60248201527f496e76616c6964205369676e61747572653a206e6f74206c6f7720730000000060448201526064016200016f565b620009bf868686868662000b72565b9695505050505050565b600080825160410362000a035760208301516040840151606085015160001a620009f68782858562000cd3565b9450945050505062000a0b565b506000905060025b9250929050565b600081600481111562000a295762000a2962001021565b0362000a325750565b600181600481111562000a495762000a4962001021565b0362000a985760405162461bcd60e51b815260206004820152601860248201527f45434453413a20696e76616c6964207369676e6174757265000000000000000060448201526064016200016f565b600281600481111562000aaf5762000aaf62001021565b0362000afe5760405162461bcd60e51b815260206004820152601f60248201527f45434453413a20696e76616c6964207369676e6174757265206c656e6774680060448201526064016200016f565b600381600481111562000b155762000b1562001021565b0362000b6f5760405162461bcd60e51b815260206004820152602260248201527f45434453413a20696e76616c6964207369676e6174757265202773272076616c604482015261756560f01b60648201526084016200016f565b50565b600073c2b78104907f722dabac4c69f826a522b2754de43b62000bee5760405162461bcd60e51b815260206004820152602d60248201527f56616c69646174696f6e204661696c65643a205032353620766572696669657260448201526c081b9bdd0819195c1b1bde5959609a1b60648201526084016200016f565b6040805160208101889052908101869052606081018590526080810184905260a0810183905260009060c001604051602081830303815290604052905060008073c2b78104907f722dabac4c69f826a522b2754de46001600160a01b03168360405162000c5c919062001003565b600060405180830381855afa9150503d806000811462000c99576040519150601f19603f3d011682016040523d82523d6000602084013e62000c9e565b606091505b509150915081801562000cc657508080602001905181019062000cc29190620010d8565b6001145b9998505050505050505050565b6000807f7fffffffffffffffffffffffffffffff5d576e7357a4501ddfe92f46681b20a083111562000d0c575060009050600362000d93565b6040805160008082526020820180845289905260ff881692820192909252606081018690526080810185905260019060a0016020604051602081039080840390855afa15801562000d61573d6000803e3d6000fd5b5050604051601f1901519150506001600160a01b03811662000d8c5760006001925092505062000d93565b9150600090505b94509492505050565b61074480620010f383390190565b634e487b7160e01b600052604160045260246000fd5b600082601f83011262000dd257600080fd5b813567ffffffffffffffff8082111562000df05762000df062000daa565b604051601f8301601f19908116603f0116810190828211818310171562000e1b5762000e1b62000daa565b8160405283815286602085880101111562000e3557600080fd5b836020870160208301376000602085830101528094505050505092915050565b6000806040838503121562000e6957600080fd5b823567ffffffffffffffff81111562000e8157600080fd5b62000e8f8582860162000dc0565b95602094909401359450505050565b60006020828403121562000eb157600080fd5b81356001600160a01b038116811462000ec957600080fd5b9392505050565b6000806040838503121562000ee457600080fd5b823567ffffffffffffffff8082111562000efd57600080fd5b908401906040828703121562000f1257600080fd5b60405160408101818110838211171562000f305762000f3062000daa565b60405282358281111562000f4357600080fd5b62000f518882860162000dc0565b82525060209283013583820152935090840135908082111562000f7357600080fd5b5062000f828582860162000dc0565b9150509250929050565b60006020828403121562000f9f57600080fd5b5035919050565b60208082526018908201527f4163636573732044656e6965643a206e6f74206f776e65720000000000000000604082015260600190565b60005b8381101562000ffa57818101518382015260200162000fe0565b50506000910152565b600082516200101781846020870162000fdd565b9190910192915050565b634e487b7160e01b600052602160045260246000fd5b83815260606020820152600083518060608401526200105e81608085016020880162000fdd565b604083019390935250601f91909101601f19160160800192915050565b805160208201516001600160601b03198082169291906014831015620010ab5780818460140360031b1b83161693505b505050919050565b60008060408385031215620010c757600080fd5b505080516020909101519092909150565b600060208284031215620010eb57600080fd5b505191905056fe608060405234801561001057600080fd5b50610019610042565b6040518060200160405280600081525061003b828260006100b060201b60201c565b50506103f6565b600080339050806001600160a01b031663dfb808316040518163ffffffff1660e01b8152600401602060405180830381865afa158015610086573d6000803e3d6000fd5b505050506040513d601f19601f820116820180604052508101906100aa919061035a565b91505090565b6100b9836100e6565b6000825111806100c65750805b156100e1576100df838361012660201b61008b1760201c565b505b505050565b6100ef81610152565b6040516001600160a01b038216907fbc7cd75a20ee27fd9adebab32041f755214dbc6bffa90cc0225b39da2e5c2d3b90600090a250565b606061014b838360405180606001604052806027815260200161071d60279139610224565b9392505050565b6101658161029d60201b6100b71760201c565b6101cc5760405162461bcd60e51b815260206004820152602d60248201527f455243313936373a206e657720696d706c656d656e746174696f6e206973206e60448201526c1bdd08184818dbdb9d1c9858dd609a1b60648201526084015b60405180910390fd5b806102037f360894a13ba1a3210667c828492db98dca3e2076cc3735a920a3ca505d382bbc60001b6102ac60201b6100c61760201c565b80546001600160a01b0319166001600160a01b039290921691909117905550565b6060600080856001600160a01b03168560405161024191906103a7565b600060405180830381855af49150503d806000811461027c576040519150601f19603f3d011682016040523d82523d6000602084013e610281565b606091505b509092509050610293868383876102af565b9695505050505050565b6001600160a01b03163b151590565b90565b6060831561031e578251600003610317576001600160a01b0385163b6103175760405162461bcd60e51b815260206004820152601d60248201527f416464726573733a2063616c6c20746f206e6f6e2d636f6e747261637400000060448201526064016101c3565b5081610328565b6103288383610330565b949350505050565b8151156103405781518083602001fd5b8060405162461bcd60e51b81526004016101c391906103c3565b60006020828403121561036c57600080fd5b81516001600160a01b038116811461014b57600080fd5b60005b8381101561039e578181015183820152602001610386565b50506000910152565b600082516103b9818460208701610383565b9190910192915050565b60208152600082518060208401526103e2816040850160208701610383565b601f01601f19169190910160400192915050565b610318806104056000396000f3fe6080604052600436106100225760003560e01c8063aaf10f421461003957610031565b366100315761002f61006a565b005b61002f61006a565b34801561004557600080fd5b5061004e61007c565b6040516001600160a01b03909116815260200160405180910390f35b61007a6100756100c9565b6100fc565b565b60006100866100c9565b905090565b60606100b083836040518060600160405280602781526020016102bc60279139610120565b9392505050565b6001600160a01b03163b151590565b90565b60006100867f360894a13ba1a3210667c828492db98dca3e2076cc3735a920a3ca505d382bbc546001600160a01b031690565b3660008037600080366000845af43d6000803e80801561011b573d6000f35b3d6000fd5b6060600080856001600160a01b03168560405161013d919061026c565b600060405180830381855af49150503d8060008114610178576040519150601f19603f3d011682016040523d82523d6000602084013e61017d565b606091505b509150915061018e86838387610198565b9695505050505050565b6060831561020c578251600003610205576001600160a01b0385163b6102055760405162461bcd60e51b815260206004820152601d60248201527f416464726573733a2063616c6c20746f206e6f6e2d636f6e747261637400000060448201526064015b60405180910390fd5b5081610216565b610216838361021e565b949350505050565b81511561022e5781518083602001fd5b8060405162461bcd60e51b81526004016101fc9190610288565b60005b8381101561026357818101518382015260200161024b565b50506000910152565b6000825161027e818460208701610248565b9190910192915050565b60208152600082518060208401526102a7816040850160208701610248565b601f01601f1916919091016040019291505056fe416464726573733a206c6f772d6c6576656c2064656c65676174652063616c6c206661696c6564a2646970667358221220fd6bcff34173a8fc2e9175557516e53fa5548d6451a3cb97e1e64249d81d886a64736f6c63430008110033416464726573733a206c6f772d6c6576656c2064656c65676174652063616c6c206661696c6564454950373132446f6d61696e28737472696e67206e616d652c737472696e672076657273696f6e2c75696e7432353620636861696e49642c6164647265737320766572696679696e67436f6e7472616374294372656174654163636f756e7428627974657320696e697469616c697a65722c75696e743235362073616c7429a2646970667358221220abfb204b2059b137171ced9455fd7cc01766f33ede909135203a1e3626eabb1d64736f6c63430008110033",
    "linkReferences": {}
  },
  "methodIdentifiers": {
    "createAccount(bytes,uint256)": "0fd8377b",
    "createAccountWithSignature((bytes,uint256),bytes)": "1b43d8d9",
    "getAddress(uint256)": "b93f9b0a",
    "getImpl()": "dfb80831",
    "getOwner()": "893d20e8",
    "setImpl(address)": "691bd2ae",
    "setOwner(address)": "13af4035"
  },
  "id": 104
}