{
  "abi": [
    {
      "type": "constructor",
      "inputs": [],
      "stateMutability": "nonpayable"
    },
    {
      "type": "fallback",
      "stateMutability": "nonpayable"
    },
    {
      "type": "receive",
      "stateMutability": "payable"
    },
    {
      "type": "function",
      "name": "execute",
      "inputs": [
        {
          "name": "calls",
          "type": "tuple[]",
          "internalType": "struct Call[]",
          "components": [
            {
              "name": "to",
              "type": "address",
              "internalType": "address"
            },
            {
              "name": "value",
              "type": "uint256",
              "internalType": "uint256"
            },
            {
              "name": "data",
              "type": "bytes",
              "internalType": "bytes"
            }
          ]
        }
      ],
      "outputs": [],
      "stateMutability": "nonpayable"
    },
    {
      "type": "function",
      "name": "getEntryPoint",
      "inputs": [],
      "outputs": [
        {
          "name": "",
          "type": "address",
          "internalType": "contract IEntryPoint"
        }
      ],
      "stateMutability": "view"
    },
    {
      "type": "function",
      "name": "getExternalValidator",
      "inputs": [],
      "outputs": [
        {
          "name": "",
          "type": "address",
          "internalType": "contract IValidator"
        }
      ],
      "stateMutability": "view"
    },
    {
      "type": "function",
      "name": "getFallbackHandler",
      "inputs": [],
      "outputs": [
        {
          "name": "",
          "type": "address",
          "internalType": "contract IFallbackHandler"
        }
      ],
      "stateMutability": "view"
    },
    {
      "type": "function",
      "name": "getOwnerValidator",
      "inputs": [],
      "outputs": [
        {
          "name": "",
          "type": "address",
          "internalType": "contract IValidator"
        }
      ],
      "stateMutability": "view"
    },
    {
      "type": "function",
      "name": "getSpaceVersion",
      "inputs": [
        {
          "name": "validator",
          "type": "address",
          "internalType": "contract IValidator"
        }
      ],
      "outputs": [
        {
          "name": "",
          "type": "uint256",
          "internalType": "uint256"
        }
      ],
      "stateMutability": "view"
    },
    {
      "type": "function",
      "name": "getValidationInfo",
      "inputs": [
        {
          "name": "userOp",
          "type": "tuple",
          "internalType": "struct UserOperation",
          "components": [
            {
              "name": "sender",
              "type": "address",
              "internalType": "address"
            },
            {
              "name": "nonce",
              "type": "uint256",
              "internalType": "uint256"
            },
            {
              "name": "initCode",
              "type": "bytes",
              "internalType": "bytes"
            },
            {
              "name": "callData",
              "type": "bytes",
              "internalType": "bytes"
            },
            {
              "name": "callGasLimit",
              "type": "uint256",
              "internalType": "uint256"
            },
            {
              "name": "verificationGasLimit",
              "type": "uint256",
              "internalType": "uint256"
            },
            {
              "name": "preVerificationGas",
              "type": "uint256",
              "internalType": "uint256"
            },
            {
              "name": "maxFeePerGas",
              "type": "uint256",
              "internalType": "uint256"
            },
            {
              "name": "maxPriorityFeePerGas",
              "type": "uint256",
              "internalType": "uint256"
            },
            {
              "name": "paymasterAndData",
              "type": "bytes",
              "internalType": "bytes"
            },
            {
              "name": "signature",
              "type": "bytes",
              "internalType": "bytes"
            }
          ]
        }
      ],
      "outputs": [
        {
          "name": "",
          "type": "address",
          "internalType": "contract IValidator"
        },
        {
          "name": "",
          "type": "uint8",
          "internalType": "enum OpTarget"
        }
      ],
      "stateMutability": "view"
    },
    {
      "type": "function",
      "name": "getValue",
      "inputs": [
        {
          "name": "validator",
          "type": "address",
          "internalType": "contract IValidator"
        },
        {
          "name": "version",
          "type": "uint256",
          "internalType": "uint256"
        },
        {
          "name": "key",
          "type": "bytes32",
          "internalType": "bytes32"
        }
      ],
      "outputs": [
        {
          "name": "",
          "type": "bytes",
          "internalType": "bytes"
        }
      ],
      "stateMutability": "view"
    },
    {
      "type": "function",
      "name": "getValue",
      "inputs": [
        {
          "name": "validator",
          "type": "address",
          "internalType": "contract IValidator"
        },
        {
          "name": "key",
          "type": "bytes32",
          "internalType": "bytes32"
        }
      ],
      "outputs": [
        {
          "name": "",
          "type": "bytes",
          "internalType": "bytes"
        }
      ],
      "stateMutability": "view"
    },
    {
      "type": "function",
      "name": "initialize",
      "inputs": [
        {
          "name": "entryPoint",
          "type": "address",
          "internalType": "contract IEntryPoint"
        },
        {
          "name": "fallbackHandler",
          "type": "address",
          "internalType": "contract IFallbackHandler"
        },
        {
          "name": "ownerValidator",
          "type": "address",
          "internalType": "contract IValidator"
        },
        {
          "name": "ownerValidatorInitData",
          "type": "bytes",
          "internalType": "bytes"
        }
      ],
      "outputs": [],
      "stateMutability": "nonpayable"
    },
    {
      "type": "function",
      "name": "isCurrentValidator",
      "inputs": [
        {
          "name": "validator",
          "type": "address",
          "internalType": "contract IValidator"
        }
      ],
      "outputs": [
        {
          "name": "",
          "type": "bool",
          "internalType": "bool"
        }
      ],
      "stateMutability": "view"
    },
    {
      "type": "function",
      "name": "isValidSignature",
      "inputs": [
        {
          "name": "hash",
          "type": "bytes32",
          "internalType": "bytes32"
        },
        {
          "name": "signature",
          "type": "bytes",
          "internalType": "bytes"
        }
      ],
      "outputs": [
        {
          "name": "magicValue",
          "type": "bytes4",
          "internalType": "bytes4"
        }
      ],
      "stateMutability": "view"
    },
    {
      "type": "function",
      "name": "proxiableUUID",
      "inputs": [],
      "outputs": [
        {
          "name": "",
          "type": "bytes32",
          "internalType": "bytes32"
        }
      ],
      "stateMutability": "view"
    },
    {
      "type": "function",
      "name": "setEntryPoint",
      "inputs": [
        {
          "name": "entryPoint",
          "type": "address",
          "internalType": "contract IEntryPoint"
        }
      ],
      "outputs": [],
      "stateMutability": "nonpayable"
    },
    {
      "type": "function",
      "name": "setExternalValidator",
      "inputs": [
        {
          "name": "externalValidator",
          "type": "address",
          "internalType": "contract IValidator"
        },
        {
          "name": "initData",
          "type": "bytes",
          "internalType": "bytes"
        }
      ],
      "outputs": [],
      "stateMutability": "nonpayable"
    },
    {
      "type": "function",
      "name": "setFallbackHandler",
      "inputs": [
        {
          "name": "handler",
          "type": "address",
          "internalType": "contract IFallbackHandler"
        }
      ],
      "outputs": [],
      "stateMutability": "nonpayable"
    },
    {
      "type": "function",
      "name": "setOwnerValidator",
      "inputs": [
        {
          "name": "ownerValidator",
          "type": "address",
          "internalType": "contract IValidator"
        },
        {
          "name": "initData",
          "type": "bytes",
          "internalType": "bytes"
        }
      ],
      "outputs": [],
      "stateMutability": "nonpayable"
    },
    {
      "type": "function",
      "name": "setValue",
      "inputs": [
        {
          "name": "key",
          "type": "bytes32",
          "internalType": "bytes32"
        },
        {
          "name": "value",
          "type": "bytes",
          "internalType": "bytes"
        }
      ],
      "outputs": [],
      "stateMutability": "nonpayable"
    },
    {
      "type": "function",
      "name": "upgradeTo",
      "inputs": [
        {
          "name": "newImplementation",
          "type": "address",
          "internalType": "address"
        }
      ],
      "outputs": [],
      "stateMutability": "nonpayable"
    },
    {
      "type": "function",
      "name": "upgradeToAndCall",
      "inputs": [
        {
          "name": "newImplementation",
          "type": "address",
          "internalType": "address"
        },
        {
          "name": "data",
          "type": "bytes",
          "internalType": "bytes"
        }
      ],
      "outputs": [],
      "stateMutability": "payable"
    },
    {
      "type": "function",
      "name": "validateUserOp",
      "inputs": [
        {
          "name": "userOp",
          "type": "tuple",
          "internalType": "struct UserOperation",
          "components": [
            {
              "name": "sender",
              "type": "address",
              "internalType": "address"
            },
            {
              "name": "nonce",
              "type": "uint256",
              "internalType": "uint256"
            },
            {
              "name": "initCode",
              "type": "bytes",
              "internalType": "bytes"
            },
            {
              "name": "callData",
              "type": "bytes",
              "internalType": "bytes"
            },
            {
              "name": "callGasLimit",
              "type": "uint256",
              "internalType": "uint256"
            },
            {
              "name": "verificationGasLimit",
              "type": "uint256",
              "internalType": "uint256"
            },
            {
              "name": "preVerificationGas",
              "type": "uint256",
              "internalType": "uint256"
            },
            {
              "name": "maxFeePerGas",
              "type": "uint256",
              "internalType": "uint256"
            },
            {
              "name": "maxPriorityFeePerGas",
              "type": "uint256",
              "internalType": "uint256"
            },
            {
              "name": "paymasterAndData",
              "type": "bytes",
              "internalType": "bytes"
            },
            {
              "name": "signature",
              "type": "bytes",
              "internalType": "bytes"
            }
          ]
        },
        {
          "name": "userOpHash",
          "type": "bytes32",
          "internalType": "bytes32"
        },
        {
          "name": "missingAccountFunds",
          "type": "uint256",
          "internalType": "uint256"
        }
      ],
      "outputs": [
        {
          "name": "validationData",
          "type": "uint256",
          "internalType": "uint256"
        }
      ],
      "stateMutability": "nonpayable"
    },
    {
      "type": "event",
      "name": "AdminChanged",
      "inputs": [
        {
          "name": "previousAdmin",
          "type": "address",
          "indexed": false,
          "internalType": "address"
        },
        {
          "name": "newAdmin",
          "type": "address",
          "indexed": false,
          "internalType": "address"
        }
      ],
      "anonymous": false
    },
    {
      "type": "event",
      "name": "BeaconUpgraded",
      "inputs": [
        {
          "name": "beacon",
          "type": "address",
          "indexed": true,
          "internalType": "address"
        }
      ],
      "anonymous": false
    },
    {
      "type": "event",
      "name": "EntryPointChanged",
      "inputs": [
        {
          "name": "prevEntryPoint",
          "type": "address",
          "indexed": true,
          "internalType": "contract IEntryPoint"
        },
        {
          "name": "curEntryPoint",
          "type": "address",
          "indexed": true,
          "internalType": "contract IEntryPoint"
        }
      ],
      "anonymous": false
    },
    {
      "type": "event",
      "name": "ExternalValidatorChanged",
      "inputs": [
        {
          "name": "prevExternalValidator",
          "type": "address",
          "indexed": true,
          "internalType": "contract IValidator"
        },
        {
          "name": "curExternalValidator",
          "type": "address",
          "indexed": true,
          "internalType": "contract IValidator"
        },
        {
          "name": "hasInitCall",
          "type": "bool",
          "indexed": false,
          "internalType": "bool"
        },
        {
          "name": "initSelector",
          "type": "bytes4",
          "indexed": false,
          "internalType": "bytes4"
        }
      ],
      "anonymous": false
    },
    {
      "type": "event",
      "name": "FallbackHandlerChanged",
      "inputs": [
        {
          "name": "previousHandler",
          "type": "address",
          "indexed": true,
          "internalType": "contract IFallbackHandler"
        },
        {
          "name": "currentHandler",
          "type": "address",
          "indexed": true,
          "internalType": "contract IFallbackHandler"
        }
      ],
      "anonymous": false
    },
    {
      "type": "event",
      "name": "Initialized",
      "inputs": [
        {
          "name": "version",
          "type": "uint8",
          "indexed": false,
          "internalType": "uint8"
        }
      ],
      "anonymous": false
    },
    {
      "type": "event",
      "name": "OwnerValidatorChanged",
      "inputs": [
        {
          "name": "prevOwnerValidator",
          "type": "address",
          "indexed": true,
          "internalType": "contract IValidator"
        },
        {
          "name": "curOwnerValidator",
          "type": "address",
          "indexed": true,
          "internalType": "contract IValidator"
        },
        {
          "name": "hasInitCall",
          "type": "bool",
          "indexed": false,
          "internalType": "bool"
        },
        {
          "name": "initSelector",
          "type": "bytes4",
          "indexed": false,
          "internalType": "bytes4"
        }
      ],
      "anonymous": false
    },
    {
      "type": "event",
      "name": "Upgraded",
      "inputs": [
        {
          "name": "implementation",
          "type": "address",
          "indexed": true,
          "internalType": "address"
        }
      ],
      "anonymous": false
    }
  ],
  "bytecode": {
    "object": "0x60a0604052306080523480156200001557600080fd5b506200002062000026565b620000e7565b600054610100900460ff1615620000935760405162461bcd60e51b815260206004820152602760248201527f496e697469616c697a61626c653a20636f6e747261637420697320696e697469604482015266616c697a696e6760c81b606482015260840160405180910390fd5b60005460ff90811614620000e5576000805460ff191660ff9081179091556040519081527f7f26b83ff96e1f2b6a682f133852f6798a09c465da95921460cefb38474024989060200160405180910390a15b565b60805161297c6200011f600039600081816107bc015281816107fc01528181610aae01528181610aee0152610b6a015261297c6000f3fe60806040526004361061012e5760003560e01c806355614fcc116100ab578063856dfd991161006f578063856dfd991461045d5780639358adf5146104725780639cf6d23614610492578063ec283494146104b2578063f08a0323146104f5578063f1f1e1d91461051557610135565b806355614fcc1461039d578063584465f2146103cd5780637292b791146103ed57806377b326f81461041a5780637fcf4a691461044857610135565b80633a871cdd116100f25780633a871cdd146103125780633f707e6b1461034057806344ab613f146103605780634f1ef2861461037557806352d1902d1461038857610135565b80630e486e60146102215780631626ba7e14610277578063246581f7146102b057806327395ac7146102d25780633659cfe6146102f257610135565b3661013557005b34801561014157600080fd5b50600061014c610535565b90506001600160a01b0381166101a95760405162461bcd60e51b815260206004820152601f60248201527f436f6e666967204e6f74205365743a2046616c6c6261636b48616e646c65720060448201526064015b60405180910390fd5b600080826001600160a01b03166000366040516101c7929190611c24565b600060405180830381855afa9150503d8060008114610202576040519150601f19603f3d011682016040523d82523d6000602084013e610207565b606091505b50915091508161021957805160208201fd5b805160208201f35b34801561022d57600080fd5b507faf306d19573fd404bed876656e4bfdffbbe2cbf74c360f313030ac331a202f01546001600160a01b03165b6040516001600160a01b0390911681526020015b60405180910390f35b34801561028357600080fd5b50610297610292366004611c7c565b610568565b6040516001600160e01b0319909116815260200161026e565b3480156102bc57600080fd5b506102d06102cb366004611cdc565b610620565b005b3480156102de57600080fd5b506102d06102ed366004611d57565b61074b565b3480156102fe57600080fd5b506102d061030d366004611da2565b6107b2565b34801561031e57600080fd5b5061033261032d366004611dd8565b61087a565b60405190815260200161026e565b34801561034c57600080fd5b506102d061035b366004611e25565b6109c3565b34801561036c57600080fd5b5061025a610a7c565b6102d0610383366004611f4e565b610aa4565b34801561039457600080fd5b50610332610b5d565b3480156103a957600080fd5b506103bd6103b8366004611da2565b610c10565b604051901515815260200161026e565b3480156103d957600080fd5b506102d06103e8366004611da2565b610c21565b3480156103f957600080fd5b5061040d610408366004611f9d565b610c49565b60405161026e9190612022565b34801561042657600080fd5b5061043a610435366004612035565b610d1e565b60405161026e9291906120a1565b34801561045457600080fd5b5061025a61108b565b34801561046957600080fd5b5061025a610535565b34801561047e57600080fd5b506102d061048d366004611c7c565b6110a1565b34801561049e57600080fd5b5061040d6104ad3660046120be565b611110565b3480156104be57600080fd5b506103326104cd366004611da2565b6001600160a01b03166000908152600080516020612927833981519152602052604090205490565b34801561050157600080fd5b506102d0610510366004611da2565b6111e5565b34801561052157600080fd5b506102d0610530366004611d57565b61120d565b60007f1548400c2fdbbf7c95ce759dedcf37664eed65746ca98046d143de6eac3c2d005b546001600160a01b0316919050565b60008061057783850185611da2565b905061058281610c10565b80156105fa5750604051637ad527b160e01b81526001600160a01b03821690637ad527b1906105b990889088908890600401612113565b602060405180830381865afa1580156105d6573d6000803e3d6000fd5b505050506040513d601f19601f820116820180604052508101906105fa9190612136565b61060c576001600160e01b0319610615565b630b135d3f60e11b5b9150505b9392505050565b600054610100900460ff16158080156106405750600054600160ff909116105b8061065a5750303b15801561065a575060005460ff166001145b6106bd5760405162461bcd60e51b815260206004820152602e60248201527f496e697469616c697a61626c653a20636f6e747261637420697320616c72656160448201526d191e481a5b9a5d1a585b1a5e995960921b60648201526084016101a0565b6000805460ff1916600117905580156106e0576000805461ff0019166101001790555b6106e986611292565b6106f285611332565b6106fd84848461142a565b8015610743576000805461ff0019169055604051600181527f7f26b83ff96e1f2b6a682f133852f6798a09c465da95921460cefb38474024989060200160405180910390a15b505050505050565b33301461076a5760405162461bcd60e51b81526004016101a090612158565b61077261108b565b6001600160a01b0316836001600160a01b0316036107a25760405162461bcd60e51b81526004016101a09061218f565b6107ad83838361152b565b505050565b6001600160a01b037f00000000000000000000000000000000000000000000000000000000000000001630036107fa5760405162461bcd60e51b81526004016101a0906121e2565b7f00000000000000000000000000000000000000000000000000000000000000006001600160a01b031661082c611620565b6001600160a01b0316146108525760405162461bcd60e51b81526004016101a09061222e565b61085b81611636565b6040805160008082526020820190925261087791839190611655565b50565b6000610884610a7c565b6001600160a01b0316336001600160a01b0316146108e45760405162461bcd60e51b815260206004820152601d60248201527f4163636573732044656e6965643a206e6f7420456e747279506f696e7400000060448201526064016101a0565b6000806108f086610d1e565b6040516335315f4360e11b815291935091506001600160a01b03831690636a62be8690610925908990899086906004016122bf565b602060405180830381865afa158015610942573d6000803e3d6000fd5b505050506040513d601f19601f8201168201806040525081019061096691906123df565b925083156109ba57604051600090339086908381818185875af1925050503d80600081146109b0576040519150601f19603f3d011682016040523d82523d6000602084013e6109b5565b606091505b505050505b50509392505050565b6109cb610a7c565b6001600160a01b0316336001600160a01b031614610a2b5760405162461bcd60e51b815260206004820152601d60248201527f4163636573732044656e6965643a206e6f7420456e747279506f696e7400000060448201526064016101a0565b60005b818110156107ad57610a6b838383818110610a4b57610a4b6123f8565b9050602002810190610a5d919061240e565b610a66906124b2565b6117c0565b50610a75816124be565b9050610a2e565b60007fd8c6fd373784be47376319e29e6534d1fbff8223ee19f610b906e6baa0785100610559565b6001600160a01b037f0000000000000000000000000000000000000000000000000000000000000000163003610aec5760405162461bcd60e51b81526004016101a0906121e2565b7f00000000000000000000000000000000000000000000000000000000000000006001600160a01b0316610b1e611620565b6001600160a01b031614610b445760405162461bcd60e51b81526004016101a09061222e565b610b4d82611636565b610b5982826001611655565b5050565b6000306001600160a01b037f00000000000000000000000000000000000000000000000000000000000000001614610bfd5760405162461bcd60e51b815260206004820152603860248201527f555550535570677261646561626c653a206d757374206e6f742062652063616c60448201527f6c6564207468726f7567682064656c656761746563616c6c000000000000000060648201526084016101a0565b506000805160206128c083398151915290565b6000610c1b8261184b565b92915050565b333014610c405760405162461bcd60e51b81526004016101a090612158565b61087781611292565b6001600160a01b03831660009081526000805160206129278339815191526020908152604080832085845260018101835281842085855290925290912080546060929190610c96906124e5565b80601f0160208091040260200160405190810160405280929190818152602001828054610cc2906124e5565b8015610d0f5780601f10610ce457610100808354040283529160200191610d0f565b820191906000526020600020905b815481529060010190602001808311610cf257829003601f168201915b50505050509150509392505050565b60008080610d2f6060850185612519565b610d3e9160049160009161255f565b610d4791612589565b90506001600160e01b03198116633f707e6b60e01b14610d795760405162461bcd60e51b81526004016101a0906125b9565b6000610d886060860186612519565b610d9691600490829061255f565b810190610da391906125fc565b805190915080610dc55760405162461bcd60e51b81526004016101a0906125b9565b600082600081518110610dda57610dda6123f8565b60200260200101516000015190506000610df38261188e565b905060015b83811015610f7757610e26858281518110610e1557610e156123f8565b60200260200101516000015161188e565b6002811115610e3757610e37612069565b826002811115610e4957610e49612069565b14610eb35760405162461bcd60e51b815260206004820152603460248201527f56616c69646174696f6e204661696c65643a2063616c6c7320636f6e7461696e60448201527320646966666572656e74204f705461726765747360601b60648201526084016101a0565b6002826002811115610ec757610ec7612069565b14610f6757848181518110610ede57610ede6123f8565b6020026020010151600001516001600160a01b0316836001600160a01b031614610f675760405162461bcd60e51b815260206004820152603460248201527f56616c69646174696f6e204661696c65643a2063616c6c7320646f206e6f742060448201527368617665207468652073616d652063616c6c656560601b60648201526084016101a0565b610f70816124be565b9050610df8565b506000610f886101408a018a612519565b810190610f959190611da2565b9050610fa081610c10565b610fbc5760405162461bcd60e51b81526004016101a0906126be565b6000826002811115610fd057610fd0612069565b03611022576000610fdf61108b565b9050806001600160a01b0316826001600160a01b0316146110125760405162461bcd60e51b81526004016101a090612702565b9960009950975050505050505050565b600182600281111561103657611036612069565b0361107c57826001600160a01b0316816001600160a01b03161461106c5760405162461bcd60e51b81526004016101a090612702565b5090976001975095505050505050565b98600298509650505050505050565b6000600080516020612907833981519152610559565b336110ab8161184b565b6110c75760405162461bcd60e51b81526004016101a0906126be565b6001600160a01b0381166000908152600080516020612927833981519152602090815260408083208054845260018101835281842088855290925290912061074384868361278c565b6001600160a01b038216600090815260008051602061292783398151915260209081526040808320805484526001810183528184208585529092529091208054606092919061115e906124e5565b80601f016020809104026020016040519081016040528092919081815260200182805461118a906124e5565b80156111d75780601f106111ac576101008083540402835291602001916111d7565b820191906000526020600020905b8154815290600101906020018083116111ba57829003601f168201915b505050505091505092915050565b3330146112045760405162461bcd60e51b81526004016101a090612158565b61087781611332565b33301461122c5760405162461bcd60e51b81526004016101a090612158565b7faf306d19573fd404bed876656e4bfdffbbe2cbf74c360f313030ac331a202f01546001600160a01b03166001600160a01b0316836001600160a01b0316036112875760405162461bcd60e51b81526004016101a09061218f565b6107ad83838361142a565b6001600160a01b0381166112b85760405162461bcd60e51b81526004016101a09061284c565b7fd8c6fd373784be47376319e29e6534d1fbff8223ee19f610b906e6baa078510080546040516001600160a01b038481169216907f450909c1478d09248269d4ad4fa8cba61ca3f50faed58c7aedefa51c7f62b83a90600090a380546001600160a01b0319166001600160a01b0392909216919091179055565b306001600160a01b0382160361138a5760405162461bcd60e51b815260206004820152601b60248201527f496e76616c696420496e7075743a2073656c662061646472657373000000000060448201526064016101a0565b6001600160a01b0381166113b05760405162461bcd60e51b81526004016101a09061284c565b7f1548400c2fdbbf7c95ce759dedcf37664eed65746ca98046d143de6eac3c2d0080546040516001600160a01b038481169216907fe799cdc19308bffc2f9ad7d1d770ef83d2d702bd8c7e9faaa65068e3e589b36a90600090a380546001600160a01b0319166001600160a01b0392909216919091179055565b6001600160a01b0383166114505760405162461bcd60e51b81526004016101a09061284c565b600060008051602061290783398151915280546001600160a01b038681166001600160a01b03198316178355604080516020601f88018190048102820181019092528681529394509116916000916114c491889188908890819084018382808284376000920191909152506118c692505050565b90506001600160a01b038087169083167f7ae8d48d7872cc5e50165b793f270de5210e6354b7322e9b22cd3d87e211190483611500888a612589565b6040805192151583526001600160e01b031990911660208301520160405180910390a3505050505050565b6001600160a01b0383166115515760405162461bcd60e51b81526004016101a09061284c565b7faf306d19573fd404bed876656e4bfdffbbe2cbf74c360f313030ac331a202f0180546001600160a01b038581166001600160a01b0319831617909255604080516020601f860181900481028201810190925284815260008051602061290783398151915293909216916000916115e491889188908890819084018382808284376000920191909152506118c692505050565b90506001600160a01b038087169083167fcae555cd0fc3d9dbdefb85fdc232a91c5942cad1e638f07e0280061d7339dc3583611500888a612589565b60006000805160206128c0833981519152610559565b3330146108775760405162461bcd60e51b81526004016101a090612158565b7f4910fdfa16fed3260ed0e7147f7cc6da11a60208b5b9406d12a635614ffd91435460ff1615611688576107ad836119aa565b826001600160a01b03166352d1902d6040518163ffffffff1660e01b8152600401602060405180830381865afa9250505080156116e2575060408051601f3d908101601f191682019092526116df918101906123df565b60015b6117455760405162461bcd60e51b815260206004820152602e60248201527f45524331393637557067726164653a206e657720696d706c656d656e7461746960448201526d6f6e206973206e6f74205555505360901b60648201526084016101a0565b6000805160206128c083398151915281146117b45760405162461bcd60e51b815260206004820152602960248201527f45524331393637557067726164653a20756e737570706f727465642070726f786044820152681a58589b195555525160ba1b60648201526084016101a0565b506107ad838383611a46565b6060600082600001519050600080826001600160a01b0316856020015186604001516040516117ef9190612883565b60006040518083038185875af1925050503d806000811461182c576040519150601f19603f3d011682016040523d82523d6000602084013e611831565b606091505b50915091508161184357805160208201fd5b949350505050565b6000805160206129078339815191528054600091906001600160a01b0384811691161480610619575060018101546001600160a01b038481169116149392505050565b6000306001600160a01b038316036118a857506000919050565b6118b182610c10565b156118be57506001919050565b506002919050565b60006118d183611a71565b5050805115801590610c1b57600061190c6040518060600160405280866001600160a01b0316815260200160008152602001858152506117c0565b8051909150632f668f9960e01b9061192d9083016020908101908401612895565b6001600160e01b031916146119a35760405162461bcd60e51b815260206004820152603660248201527f4163636f756e7420557064617465204661696c65643a2076616c696461746f72604482015275081a5b9a5d1a585b1a5e985d1a5bdb8819985a5b195960521b60648201526084016101a0565b5092915050565b6001600160a01b0381163b611a175760405162461bcd60e51b815260206004820152602d60248201527f455243313936373a206e657720696d706c656d656e746174696f6e206973206e60448201526c1bdd08184818dbdb9d1c9858dd609a1b60648201526084016101a0565b6000805160206128c083398151915280546001600160a01b0319166001600160a01b0392909216919091179055565b611a4f83611aae565b600082511180611a5c5750805b156107ad57611a6b8383611aee565b50505050565b6001600160a01b03811660009081526000805160206129278339815191526020526040812080548290611aa3906124be565b918290555092915050565b611ab7816119aa565b6040516001600160a01b038216907fbc7cd75a20ee27fd9adebab32041f755214dbc6bffa90cc0225b39da2e5c2d3b90600090a250565b606061061983836040518060600160405280602781526020016128e0602791396060600080856001600160a01b031685604051611b2b9190612883565b600060405180830381855af49150503d8060008114611b66576040519150601f19603f3d011682016040523d82523d6000602084013e611b6b565b606091505b5091509150611b7c86838387611b86565b9695505050505050565b60608315611bf5578251600003611bee576001600160a01b0385163b611bee5760405162461bcd60e51b815260206004820152601d60248201527f416464726573733a2063616c6c20746f206e6f6e2d636f6e747261637400000060448201526064016101a0565b5081611843565b6118438383815115611c0a5781518083602001fd5b8060405162461bcd60e51b81526004016101a09190612022565b8183823760009101908152919050565b60008083601f840112611c4657600080fd5b5081356001600160401b03811115611c5d57600080fd5b602083019150836020828501011115611c7557600080fd5b9250929050565b600080600060408486031215611c9157600080fd5b8335925060208401356001600160401b03811115611cae57600080fd5b611cba86828701611c34565b9497909650939450505050565b6001600160a01b038116811461087757600080fd5b600080600080600060808688031215611cf457600080fd5b8535611cff81611cc7565b94506020860135611d0f81611cc7565b93506040860135611d1f81611cc7565b925060608601356001600160401b03811115611d3a57600080fd5b611d4688828901611c34565b969995985093965092949392505050565b600080600060408486031215611d6c57600080fd5b8335611d7781611cc7565b925060208401356001600160401b03811115611cae57600080fd5b8035611d9d81611cc7565b919050565b600060208284031215611db457600080fd5b813561061981611cc7565b60006101608284031215611dd257600080fd5b50919050565b600080600060608486031215611ded57600080fd5b83356001600160401b03811115611e0357600080fd5b611e0f86828701611dbf565b9660208601359650604090950135949350505050565b60008060208385031215611e3857600080fd5b82356001600160401b0380821115611e4f57600080fd5b818501915085601f830112611e6357600080fd5b813581811115611e7257600080fd5b8660208260051b8501011115611e8757600080fd5b60209290920196919550909350505050565b634e487b7160e01b600052604160045260246000fd5b604051601f8201601f191681016001600160401b0381118282101715611ed757611ed7611e99565b604052919050565b600082601f830112611ef057600080fd5b81356001600160401b03811115611f0957611f09611e99565b611f1c601f8201601f1916602001611eaf565b818152846020838601011115611f3157600080fd5b816020850160208301376000918101602001919091529392505050565b60008060408385031215611f6157600080fd5b8235611f6c81611cc7565b915060208301356001600160401b03811115611f8757600080fd5b611f9385828601611edf565b9150509250929050565b600080600060608486031215611fb257600080fd5b8335611fbd81611cc7565b95602085013595506040909401359392505050565b60005b83811015611fed578181015183820152602001611fd5565b50506000910152565b6000815180845261200e816020860160208601611fd2565b601f01601f19169290920160200192915050565b6020815260006106196020830184611ff6565b60006020828403121561204757600080fd5b81356001600160401b0381111561205d57600080fd5b61184384828501611dbf565b634e487b7160e01b600052602160045260246000fd5b6003811061209d57634e487b7160e01b600052602160045260246000fd5b9052565b6001600160a01b038316815260408101610619602083018461207f565b600080604083850312156120d157600080fd5b82356120dc81611cc7565b946020939093013593505050565b81835281816020850137506000828201602090810191909152601f909101601f19169091010190565b83815260406020820152600061212d6040830184866120ea565b95945050505050565b60006020828403121561214857600080fd5b8151801515811461061957600080fd5b60208082526017908201527f4163636573732044656e6965643a206e6f742073656c66000000000000000000604082015260600190565b60208082526033908201527f4163636f756e7420557064617465204661696c65643a2076616c696461746f726040820152721cc81b5d5cdd08189948191a5999995c995b9d606a1b606082015260800190565b6020808252602c908201527f46756e6374696f6e206d7573742062652063616c6c6564207468726f7567682060408201526b19195b1959d85d1958d85b1b60a21b606082015260800190565b6020808252602c908201527f46756e6374696f6e206d7573742062652063616c6c6564207468726f7567682060408201526b6163746976652070726f787960a01b606082015260800190565b6000808335601e1984360301811261229157600080fd5b83016020810192503590506001600160401b038111156122b057600080fd5b803603821315611c7557600080fd5b606081526122e0606082016122d386611d92565b6001600160a01b03169052565b6020840135608082015260006122f9604086018661227a565b6101608060a08601526123116101c0860183856120ea565b9250612320606089018961227a565b9250605f19808786030160c088015261233a8585846120ea565b945060808a013560e0880152610100935060a08a013584880152610120915060c08a01358288015261014060e08b013581890152848b013584890152612382838c018c61227a565b95509350818887030161018089015261239c8686866120ea565b95506123aa818c018c61227a565b955093505080878603016101a088015250506123c78383836120ea565b9350505050836020830152611843604083018461207f565b6000602082840312156123f157600080fd5b5051919050565b634e487b7160e01b600052603260045260246000fd5b60008235605e1983360301811261242457600080fd5b9190910192915050565b60006060828403121561244057600080fd5b604051606081016001600160401b03828210818311171561246357612463611e99565b816040528293508435915061247782611cc7565b81835260208501356020840152604085013591508082111561249857600080fd5b506124a585828601611edf565b6040830152505092915050565b6000610c1b368361242e565b6000600182016124de57634e487b7160e01b600052601160045260246000fd5b5060010190565b600181811c908216806124f957607f821691505b602082108103611dd257634e487b7160e01b600052602260045260246000fd5b6000808335601e1984360301811261253057600080fd5b8301803591506001600160401b0382111561254a57600080fd5b602001915036819003821315611c7557600080fd5b6000808585111561256f57600080fd5b8386111561257c57600080fd5b5050820193919092039150565b6001600160e01b031981358181169160048510156125b15780818660040360031b1b83161692505b505092915050565b60208082526023908201527f56616c69646174696f6e204661696c65643a20696e76616c69642063616c6c6460408201526261746160e81b606082015260800190565b6000602080838503121561260f57600080fd5b82356001600160401b038082111561262657600080fd5b818501915085601f83011261263a57600080fd5b81358181111561264c5761264c611e99565b8060051b61265b858201611eaf565b918252838101850191858101908984111561267557600080fd5b86860192505b838310156126b1578235858111156126935760008081fd5b6126a18b89838a010161242e565b835250918601919086019061267b565b9998505050505050505050565b60208082526024908201527f4163636573732044656e6965643a206e6f742063757272656e742076616c696460408201526330ba37b960e11b606082015260800190565b60208082526024908201527f56616c69646174696f6e204661696c65643a20696e76616c69642076616c696460408201526330ba37b960e11b606082015260800190565b601f8211156107ad57600081815260208120601f850160051c8101602086101561276d5750805b601f850160051c820191505b8181101561074357828155600101612779565b6001600160401b038311156127a3576127a3611e99565b6127b7836127b183546124e5565b83612746565b6000601f8411600181146127eb57600085156127d35750838201355b600019600387901b1c1916600186901b178355612845565b600083815260209020601f19861690835b8281101561281c57868501358255602094850194600190920191016127fc565b50868210156128395760001960f88860031b161c19848701351681555b505060018560011b0183555b5050505050565b6020808252601b908201527f496e76616c696420496e7075743a207a65726f20616464726573730000000000604082015260600190565b60008251612424818460208701611fd2565b6000602082840312156128a757600080fd5b81516001600160e01b03198116811461061957600080fdfe360894a13ba1a3210667c828492db98dca3e2076cc3735a920a3ca505d382bbc416464726573733a206c6f772d6c6576656c2064656c65676174652063616c6c206661696c6564af306d19573fd404bed876656e4bfdffbbe2cbf74c360f313030ac331a202f008c48e357b146d48b3bd08103a6b1db6a3beec3b5daf56b6ad010e307f6b0fb00a26469706673582212209a9899a2df5947a56b01017ae6b485db4d2af063a1b654638ceed261d407538e64736f6c63430008110033",
    "linkReferences": {}
  },
  "methodIdentifiers": {
    "execute((address,uint256,bytes)[])": "3f707e6b",
    "getEntryPoint()": "44ab613f",
    "getExternalValidator()": "0e486e60",
    "getFallbackHandler()": "856dfd99",
    "getOwnerValidator()": "7fcf4a69",
    "getSpaceVersion(address)": "ec283494",
    "getValidationInfo((address,uint256,bytes,bytes,uint256,uint256,uint256,uint256,uint256,bytes,bytes))": "77b326f8",
    "getValue(address,bytes32)": "9cf6d236",
    "getValue(address,uint256,bytes32)": "7292b791",
    "initialize(address,address,address,bytes)": "246581f7",
    "isCurrentValidator(address)": "55614fcc",
    "isValidSignature(bytes32,bytes)": "1626ba7e",
    "proxiableUUID()": "52d1902d",
    "setEntryPoint(address)": "584465f2",
    "setExternalValidator(address,bytes)": "27395ac7",
    "setFallbackHandler(address)": "f08a0323",
    "setOwnerValidator(address,bytes)": "f1f1e1d9",
    "setValue(bytes32,bytes)": "9358adf5",
    "upgradeTo(address)": "3659cfe6",
    "upgradeToAndCall(address,bytes)": "4f1ef286",
    "validateUserOp((address,uint256,bytes,bytes,uint256,uint256,uint256,uint256,uint256,bytes,bytes),bytes32,uint256)": "3a871cdd"
  },
  "id": 78
}